:020000040000FA
:0600000063EF33F0120073
:020006001200E6
:0600080038EF2FF012009A
:02000E000000F0
:06001000000000000000EA
:0600180097EF2FF012002B
:02001E000900D7
:1000200073670000DA010000030000006D67000044
:10003000CC0100000600000068670000D20100004B
:100040000500000062670000C60100000600000015
:1000500057670000A90100000B000000496700007D
:10006000E50000000E00000046670000D701000018
:1000700003000000E2660000600000006400000071
:0C0080000E000000BE010000080000009F
:04008C00000000A0D0
:10009000A0A0000000000000000000000000000020
:1000A00000404040808080F3F3F33F3F3FFFFFFF7D
:1000B00000000000000000000000000000000041FF
:1000C00041410A0A0A0303031515154C4C4C000064
:1000D0000000000000000000000000000000000020
:1000E0000000000000000000000000000000000010
:1000F0000000000000000000000000000000000000
:1001000000000000090909000000000000000000D4
:1001100001010100000000000000000000000000DC
:100120000000606060643DC64D507E10FFFF7AFFA6
:10013000FF41DB4A0F324C000000160F0C57575797
:100140000000000E0E0E0000000707070F0F0F67DC
:100150006767080808343434020202000000000017
:100160000050A81C00010100000028D48E000000EF
:10017000000000FFFFFF010101000000FFFFFF0082
:1001800000000F0F0F000000000000C0C0C0000002
:1001900000000000000000808080000000C2C2C299
:1001A000EBEBEB0B0B0B000000000000000000006D
:1001B0000000606060643DC64D507E10FFFF7AFF16
:1001C000FF41DB4A0F324C000000160F0C57575707
:1001D0000000000E0E0E0000000707070F0F0F674C
:1001E0006767080808343434020202000000000087
:1001F0000050A81C00010100000028D48E0000005F
:10020000000000FFFFFF010101000000FFFFFF00F1
:1002100000000F0F0F000000000000C0C0C0000071
:10022000000000000000008080807CBC6CF544B4BD
:100230007CBC6CF544B4000000000000000000002D
:100240000000606060643DC64D507E10FFFF7AFF85
:10025000FF41DB4A0F324C000000160F0C57575776
:100260000000000E0E0E0000000707070F0F0F67BB
:1002700067670808083434340202020000000000F6
:100280000050A81C00010100000028D48E000000CE
:10029000000000FFFFFF010101000000FFFFFF0061
:1002A00000000F0F0F000000000000C0C0C00000E1
:1002B00000000000000000808080000000000000BE
:1002C000000000000000000000000000000000002E
:1002D0000000606060643DC64D507E10FFFF7AFFF5
:1002E000FF41DB4A0F324C000000160F0C575757E6
:1002F0000000000E0E0E0000000707070F0F0F672B
:100300006767080808343434020202000000000065
:100310000050A81C00010100000028D48E0000003D
:10032000000000FFFFFF010101000000FFFFFF00D0
:1003300000000F0F0F000000000000C0C0C0000050
:10034000000000000000008080800000000000002D
:100350000F0F0F0000000000000000000000000070
:10036000000000000000000000000000000000008D
:10037000000000000000000000000000000000007D
:10038000000000000000000000000000A5A5A5007E
:100390000000060606020202F5F5F5FEFEFE4343E6
:1003A00043F8F8F8020202FAFAFA6B6B6B0C0C0CC9
:1003B000616161262626C3C3C3323232FFFFFFFFCD
:1003C000FFFF010101000000030303000000010121
:1003D00001000000FBFBFBFFFFFFFDFDFDFFFFFF3A
:1003E000070707000000090909000000F9F9F9FFF3
:1003F000FFFFEEEEEEFFFFFF0303030000001C1CF7
:100400001C000000090909000000DADADAFFFFFF2A
:10041000E2E2E2FFFFFF2929290000003D3D3D0007
:100420000000E2E2E2FFFFFF9F9F9FFFFFFFFFFF51
:10043000FFFFFFFF8383830000003A3A3A00000089
:100440006A6A6AFFFFFF737373FFFFFF8989890080
:100450000000F3F3F3000000B5B5B5FFFFFFA5A55D
:10046000A5FEFEFECDCDCDFFFFFFAAAAAA01010188
:10047000F6F6F6000000444444FEFEFE040404FECA
:10048000FEFE686868010101333333030303858589
:1004900085FFFFFF818181FBFBFBADADADFEFEFE65
:1004A000BCBCBC0505059292920404043E3E3EF994
:1004B000F9F9B9B9B9F4F4F4707070070707F2F2FA
:1004C000F227272754545438383800000000000021
:1004D000000000000000000000000000000000001C
:1004E000000000000000000000000000000000000C
:1004F00000000000000000000000000000000000FC
:10050000000000000000000000000000A5A5A500FC
:100510000000060606020202F5F5F5FEFEFE434364
:1005200043F8F8F8020202FAFAFA6B6B6B0C0C0C47
:10053000616161262626C3C3C3323232FFFFFFFF4B
:10054000FFFF01010100000003030300000001019F
:1005500001000000FBFBFBFFFFFFFDFDFDFFFFFFB8
:10056000070707000000090909000000F9F9F9FF71
:10057000FFFFEEEEEEFFFFFF0303030000001C1C75
:100580001C000000090909000000DADADAFFFFFFA9
:10059000E2E2E2FFFFFF2929290000003D3D3D0086
:1005A0000000E2E2E2FFFFFF9F9F9FFFFFFFFFFFD0
:1005B000FFFFFFFF8383830000003A3A3A00000008
:1005C0006A6A6AFFFFFF737373FFFFFF89898900FF
:1005D0000000F3F3F3000000B5B5B5FFFFFFA5A5DC
:1005E000A5FEFEFECDCDCDFFFFFFAAAAAA01010107
:1005F000F6F6F6000000444444FEFEFE040404FE49
:10060000FEFE686868010101333333030303858507
:1006100085FFFFFF818181FBFBFBADADADFEFEFEE3
:10062000BCBCBC0505059292920404043E3E3EF912
:10063000F9F9B9B9B9F4F4F4707070070707F2F278
:10064000F22727275454543838380000000000009F
:10065000000000000000000000000000000000009A
:10066000000000000000000000000000000000008A
:10067000000000000000000000000000000000007A
:10068000000000000000000000000000A5A5A5007B
:100690000000060606020202F5F5F5FEFEFE4343E3
:1006A00043F8F8F8020202FAFAFA6B6B6B0C0C0CC6
:1006B000616161262626C3C3C3323232FFFFFFFFCA
:1006C000FFFF01010100000003030300000001011E
:1006D00001000000FBFBFBFFFFFFFDFDFDFFFFFF37
:1006E000070707000000090909000000F9F9F9FFF0
:1006F000FFFFEEEEEEFFFFFF0303030000001C1CF4
:100700001C000000090909000000DADADAFFFFFF27
:10071000E2E2E2FFFFFF2929290000003D3D3D0004
:100720000000E2E2E2FFFFFF9F9F9FFFFFFFFFFF4E
:10073000FFFFFFFF8383830000003A3A3A00000086
:100740006A6A6AFFFFFF737373FFFFFF898989007D
:100750000000F3F3F3000000B5B5B5FFFFFFA5A55A
:10076000A5FEFEFECDCDCDFFFFFFAAAAAA01010185
:10077000F6F6F6000000444444FEFEFE040404FEC7
:10078000FEFE686868010101333333030303858586
:1007900085FFFFFF818181FBFBFBADADADFEFEFE62
:1007A000BCBCBC0505059292920404043E3E3EF991
:1007B000F9F9B9B9B9F4F4F4707070070707F2F2F7
:1007C000F22727275454543838380000000000001E
:1007D0000000000000000000000000000000000019
:1007E0000000000000000000000000000000000009
:1007F00000000000000000000000000000000000F9
:10080000000000000000000000000000A5A5A500F9
:100810000000060606020202F5F5F5FEFEFE434361
:1008200043F8F8F8020202FAFAFA6B6B6B0C0C0C44
:10083000616161262626C3C3C3323232FFFFFFFF48
:10084000FFFF01010100000003030300000001019C
:1008500001000000FBFBFBFFFFFFFDFDFDFFFFFFB5
:10086000070707000000090909000000F9F9F9FF6E
:10087000FFFFEEEEEEFFFFFF0303030000001C1C72
:100880001C000000090909000000DADADAFFFFFFA6
:10089000E2E2E2FFFFFF2929290000003D3D3D0083
:1008A0000000E2E2E2FFFFFF9F9F9FFFFFFFFFFFCD
:1008B000FFFFFFFF8383830000003A3A3A00000005
:1008C0006A6A6AFFFFFF737373FFFFFF89898900FC
:1008D0000000F3F3F3000000B5B5B5FFFFFFA5A5D9
:1008E000A5FEFEFECDCDCDFFFFFFAAAAAA01010104
:1008F000F6F6F6000000444444FEFEFE040404FE46
:10090000FEFE686868010101333333030303858504
:1009100085FFFFFF818181FBFBFBADADADFEFEFEE0
:10092000BCBCBC0505059292920404043E3E3EF90F
:10093000F9F9B9B9B9F4F4F4707070070707F2F275
:10094000F22727275454543838380000000000009C
:100950000000000000000000000000000000000097
:100960000000000000000000000000000000000087
:100970000000000000000000000000000000000077
:10098000000000000000000000000000D5E9E6F7CC
:10099000FEFE0F0F0F4ACEB4EBFFFF0F0F0F3EC945
:1009A000A9E8FFFF0F0F0F6CC59FF8FFFF0F0F0F98
:1009B00060C0930DFFFF000F0F06BB870FFFFF0006
:1009C0000F0FB7B679FEFFFF0F0F0FC5B06CF7FF23
:1009D000FF0F0F0F5DAB5D05FFFF000F0F92A54EE0
:1009E0000FFFFF000F0F6D9E3D03FFFF000F0F660F
:1009F000982CF5FFFF0F0F0F7B911BFFFFFF0F0FD1
:100A00000F4B8A0811FFFF000F0FC283F509FFFE8D
:100A1000000F0F9A7CE1F3FFFE0F0F0F0F74CCF75E
:100A2000FFFE0F0F0F2A6DB711FFFE000F0F0365BA
:100A3000A113FFFE000F0F265C8AF5FFFE0F0F0FBC
:100A4000135473ECFFFE0F0F0F974B5B0CFFFE0070
:100A50000F0F8043431EFFFE000F0F83392AFCFF58
:100A6000FE0F0F0FA33011DFFFFE0F0F0FFA27F855
:100A700000FFFD000F0FC91DDE2AFFFD000F0F9EB6
:100A800013C40CFFFD000F0F4C09AAD3FFFD0F0F7D
:100A90000F68FF90EAFEFD0F0F0F2EF57636FEFD74
:100AA000000F0F8BEA5B2BFEFD000F0FCBDF42C860
:100AB000FEFD0F0F0FC1D528BDFEFD0F0F0FF9CAA8
:100AC0000F3EFEFD000F0FCBBFF671FEFC000F0FB7
:100AD000C0B4DDC1FEFC0F0F0FD4A8C633FEFC0F5F
:100AE0000F0FC19DAF43FEFC000F0FEB929989FEE3
:100AF000FC020F0F468684BFFEFC030F0FEB7B70DA
:100B000089FEFC020F0FC16F5E43FEFC000F0FD485
:100B1000644D33FEFC0F0F0FC0593DC1FEFC0F0F9B
:100B20000FCB4D2F71FEFC000F0FF942233EFEFC50
:100B3000000F0FC13618BDFEFC0F0F0FCB2B10C8D6
:100B4000FEFC0F0F0F8B20092BFEFC000F0F2E1544
:100B50000536FEFC000F0F680A04EAFEFC0F0F0FBB
:100B60004CFF05D3FDFC0F0F0F9EF4080CFDFC009D
:100B70000F0FC9EA0E2AFDFC000F0FFAE01700FD67
:100B8000FC000F0FA3D623DFFDFC0F0F0F83CC3328
:100B9000FCFDFC0F0F0F80C3451EFDFC000F0F97DF
:100BA000BA5B0CFDFC000F0F13B174ECFDFC0F0FD2
:100BB0000F26A991F5FDFC0F0F0F03A1B213FDFC49
:100BC000000F0F2A99D611FDFC000F0F0F92FEF7B0
:100BD000FDFC0F0F0F9A8B2AF3FDFD0F0F0FC2853F
:100BE0005A09FDFD000F0F4B7F8E11FDFD000F0F09
:100BF0007B7AC6FFFDFD0F0F0F667502F5FDFE0F38
:100C00000F0F6D714303FDFE000F0F926D870FFDF7
:100C1000FE000F0F5D6AD005FDFE000F0FC5681DB9
:100C2000F7FDFF0F0F0FB7676FFEFDFF0F0F0F06EA
:100C300066C50FFDFF000F0F60661F0DFD00000F62
:100C4000006C667EF8FD000F0F003E68E0E8FD00D6
:100C50000F0F004A6A47EBFD010F0F00D56DB2F789
:100C6000FD010F0F0000712200FD02000F00007552
:100C70009500FD02000F00007B0C00FD03000F003B
:100C800000828700FD03000F0000890600FD0400BC
:100C90000F0000928900FD04000F00009B0F00FD73
:100CA00005000F0000A69900FD05000F0000B12609
:100CB00000FD06000F0000BEB600FD06000F00009C
:100CC000CB4900FD07000F0000DADF00FD07000F31
:100CD0000000EA7700FD08000F0000FB1200FD098C
:100CE000000F00000DB000FE09000F0000204F00B3
:100CF000FE0A000F000034F100FE0A000F00004A57
:100D00009400FE0B000F0000613800FE0C000F0085
:100D10000079DE00FE0C000F0000928400FE0D0042
:100D20000F0000AC2C00FE0E000F0000C8D400FE27
:100D30000E000F0000E57C00FE0F000F00000324F2
:100D400000FF10000F000023CC00FF10000F000078
:100D5000437300FF11000F0000651A00FF12000F1F
:100D6000000089BF00FF12000F0000AD6300FF13F9
:100D7000000F0000D30600FF14000F0000FAA600C9
:100D8000FF14000F00002245000015000000004C79
:100D9000E100001500000000777A00001600000056
:100DA00000A31100001700000000D0A400001700ED
:100DB000000000FF34000018000000002FC00001F8
:100DC000180000000060490001190000000092CDE9
:100DD00000011900000000C64C00011A00000000CC
:100DE000FAC700011A00000000303D00021B00009D
:100DF000000067AE00021B000000009F1A00021CEA
:100E000000000000D88000021C0000000013E10078
:100E1000031C000000004E3C00031D000000008A7F
:100E20009000031D00000000C8DF00031D0000004B
:100E300000062700041E00000000456900041E0093
:100E400000000086A400041E00000000C7D80004B3
:100E50001E00000000090600051F000000004B2DC9
:100E600000051F000000008F4C00051F000000005F
:100E7000D36500051F00000000187700061F000062
:100E800000005E8200061F00000000A58500061F0E
:100E900000000000EC8200061F0000000033770015
:100EA000071F000000007B6500071F00000000C452
:100EB0004C00071F000000000D2D00081F0000005F
:100EC00000560600081F00000000A0D800081E0001
:100ED000000000EAA400081E0000000034690009B8
:100EE0001E000000007E2700091E00000000C9DF70
:100EF00000091D000000001390000A1D0000000002
:100F00005E3C000A1D00000000A9E1000A1C000070
:100F10000000F380000A1C000000003E1A000B1CB9
:100F20000000000088AE000B1B00000000D33D0055
:100F30000B1B000000001CC7000C1A00000000661C
:100F40004C000C1A00000000AFCD000C190000008E
:100F500000F849000C190000000040C0000D180006
:100F60000000008834000D1800000000CFA4000D20
:100F700017000000001611000E17000000005C7A38
:100F8000000E1600000000A1E1000E150000000098
:100F9000E645000E150000000029A6000F14000011
:100FA00000006C06000F1400000000AE63000F1379
:100FB00000000000EEBF000F12000000002E1A001B
:100FC0001012000000006D7300101100000000AA54
:100FD000CC00101000000000E624001010000000FB
:100FE00000217C00110F000000005BD400110E00F6
:100FF000000000932C00110E00000000CA840011B4
:101000000D0000000000DE00120C0000000034386B
:1010100000120C00000000679400120B000000009A
:1010200098F100120A00000000C74F00120A0000E9
:101030000000F5B0001209000000002112001309A1
:10104000000000004C770013080000000075DF006E
:101050001307000000009C4900130700000000C1B6
:10106000B600130600000000E4260013060000008E
:1010700000069900140500000000250F001405006B
:101080000000004389001404000000005F06001403
:101090000400000000788700140300000000900C9A
:1010A00000140300000000A69500140200000000D8
:1010B000BA2200140200000000CCB20014010000AB
:1010C0000000DB4700140100000000E9E00014000C
:1010D00000000000F47E00140000000000FE1F006D
:1010E00014000000000005C50015FF00000F000BF4
:1010F0006F0015FF00000F000E1D0015FF00000F10
:10110000000FD00015FE00000F000E870015FE0036
:10111000000F000B430015FE00000F000502001534
:10112000FE00000F00FEC60014FD00000F00F48E4C
:101130000014FD00000F00E95A0014FD00000F002C
:10114000DB2A0014FD00000F00CCFE0014FC0000A0
:101150000F00BAD60014FC00000F00A6B20014FC69
:1011600000000F0090910014FC00000F0078740044
:1011700014FC00000F005F5B0014FC00000F004334
:10118000450014FC00000F0025330014FC00000F84
:101190000006230014FC00000F00E4170013FC00FD
:1011A000000F00C10E0013FC00000F009C0800138C
:1011B000FC00000F0075050013FC00000F004C043C
:1011C0000013FC00000F0021050013FC00000F00BD
:1011D000F5090012FC00000F00C7100012FC00000F
:1011E0000F0098180012FC00000F0067230012FC8B
:1011F00000000F00342F0012FC00000F00003D0023
:1012000012FC00000F00CA4D0011FC00000F0093FB
:101210005E0011FC00000F005B700011FC00000F6D
:101220000021840011FC00000F00E6990010FC0072
:10123000000F00AAAF0010FC00000F006DC60010E8
:10124000FC00000F002EDD0010FC00000F00EEF689
:10125000000FFC00000F00AE0F000FFD00000F009C
:101260006C28000FFD00000F002942000FFD000058
:101270000F00E65B000EFD00000F00A176000EFDE2
:1012800000000F005C90000EFD00000FD5E9E6F7AE
:10129000FEFE0F0F0F4ACEB4EBFFFF0F0F0F3EC93C
:1012A000A9E8FFFF0F0F0F6CC59FF8FFFF0F0F0F8F
:1012B00060C0930DFFFF000F0F06BB870FFFFF00FD
:1012C0000F0FB7B679FEFFFF0F0F0FC5B06CF7FF1A
:1012D000FF0F0F0F5DAB5D05FFFF000F0F92A54ED7
:1012E0000FFFFF000F0F6D9E3D03FFFF000F0F6606
:1012F000982CF5FFFF0F0F0F7B911BFFFFFF0F0FC8
:101300000F4B8A0811FFFF000F0FC283F509FFFE84
:10131000000F0F9A7CE1F3FFFE0F0F0F0F74CCF755
:10132000FFFE0F0F0F2A6DB711FFFE000F0F0365B1
:10133000A113FFFE000F0F265C8AF5FFFE0F0F0FB3
:10134000135473ECFFFE0F0F0F974B5B0CFFFE0067
:101350000F0F8043431EFFFE000F0F83392AFCFF4F
:10136000FE0F0F0FA33011DFFFFE0F0F0FFA27F84C
:1013700000FFFD000F0FC91DDE2AFFFD000F0F9EAD
:1013800013C40CFFFD000F0F4C09AAD3FFFD0F0F74
:101390000F68FF90EAFEFD0F0F0F2EF57636FEFD6B
:1013A000000F0F8BEA5B2BFEFD000F0FCBDF42C857
:1013B000FEFD0F0F0FC1D528BDFEFD0F0F0FF9CA9F
:1013C0000F3EFEFD000F0FCBBFF671FEFC000F0FAE
:1013D000C0B4DDC1FEFC0F0F0FD4A8C633FEFC0F56
:1013E0000F0FC19DAF43FEFC000F0FEB929989FEDA
:1013F000FC020F0F468684BFFEFC030F0FEB7B70D1
:1014000089FEFC020F0FC16F5E43FEFC000F0FD47C
:10141000644D33FEFC0F0F0FC0593DC1FEFC0F0F92
:101420000FCB4D2F71FEFC000F0FF942233EFEFC47
:10143000000F0FC13618BDFEFC0F0F0FCB2B10C8CD
:10144000FEFC0F0F0F8B20092BFEFC000F0F2E153B
:101450000536FEFC000F0F680A04EAFEFC0F0F0FB2
:101460004CFF05D3FDFC0F0F0F9EF4080CFDFC0094
:101470000F0FC9EA0E2AFDFC000F0FFAE01700FD5E
:10148000FC000F0FA3D623DFFDFC0F0F0F83CC331F
:10149000FCFDFC0F0F0F80C3451EFDFC000F0F97D6
:1014A000BA5B0CFDFC000F0F13B174ECFDFC0F0FC9
:1014B0000F26A991F5FDFC0F0F0F03A1B213FDFC40
:1014C000000F0F2A99D611FDFC000F0F0F92FEF7A7
:1014D000FDFC0F0F0F9A8B2AF3FDFD0F0F0FC28536
:1014E0005A09FDFD000F0F4B7F8E11FDFD000F0F00
:1014F0007B7AC6FFFDFD0F0F0F667502F5FDFE0F2F
:101500000F0F6D714303FDFE000F0F926D870FFDEE
:10151000FE000F0F5D6AD005FDFE000F0FC5681DB0
:10152000F7FDFF0F0F0FB7676FFEFDFF0F0F0F06E1
:1015300066C50FFDFF000F0F60661F0DFD00000F59
:10154000006C667EF8FD000F0F003E68E0E8FD00CD
:101550000F0F004A6A47EBFD010F0F00D56DB2F780
:10156000FD010F0F0000712200FD02000F00007549
:101570009500FD02000F00007B0C00FD03000F0032
:1015800000828700FD03000F0000890600FD0400B3
:101590000F0000928900FD04000F00009B0F00FD6A
:1015A00005000F0000A69900FD05000F0000B12600
:1015B00000FD06000F0000BEB600FD06000F000093
:1015C000CB4900FD07000F0000DADF00FD07000F28
:1015D0000000EA7700FD08000F0000FB1200FD0983
:1015E000000F00000DB000FE09000F0000204F00AA
:1015F000FE0A000F000034F100FE0A000F00004A4E
:101600009400FE0B000F0000613800FE0C000F007C
:101610000079DE00FE0C000F0000928400FE0D0039
:101620000F0000AC2C00FE0E000F0000C8D400FE1E
:101630000E000F0000E57C00FE0F000F00000324E9
:1016400000FF10000F000023CC00FF10000F00006F
:10165000437300FF11000F0000651A00FF12000F16
:10166000000089BF00FF12000F0000AD6300FF13F0
:10167000000F0000D30600FF14000F0000FAA600C0
:10168000FF14000F00002245000015000000004C70
:10169000E100001500000000777A0000160000004D
:1016A00000A31100001700000000D0A400001700E4
:1016B000000000FF34000018000000002FC00001EF
:1016C000180000000060490001190000000092CDE0
:1016D00000011900000000C64C00011A00000000C3
:1016E000FAC700011A00000000303D00021B000094
:1016F000000067AE00021B000000009F1A00021CE1
:1017000000000000D88000021C0000000013E1006F
:10171000031C000000004E3C00031D000000008A76
:101720009000031D00000000C8DF00031D00000042
:1017300000062700041E00000000456900041E008A
:1017400000000086A400041E00000000C7D80004AA
:101750001E00000000090600051F000000004B2DC0
:1017600000051F000000008F4C00051F0000000056
:10177000D36500051F00000000187700061F000059
:1017800000005E8200061F00000000A58500061F05
:1017900000000000EC8200061F000000003377000C
:1017A000071F000000007B6500071F00000000C449
:1017B0004C00071F000000000D2D00081F00000056
:1017C00000560600081F00000000A0D800081E00F8
:1017D000000000EAA400081E0000000034690009AF
:1017E0001E000000007E2700091E00000000C9DF67
:1017F00000091D000000001390000A1D00000000F9
:101800005E3C000A1D00000000A9E1000A1C000067
:101810000000F380000A1C000000003E1A000B1CB0
:101820000000000088AE000B1B00000000D33D004C
:101830000B1B000000001CC7000C1A000000006613
:101840004C000C1A00000000AFCD000C1900000085
:1018500000F849000C190000000040C0000D1800FD
:101860000000008834000D1800000000CFA4000D17
:1018700017000000001611000E17000000005C7A2F
:10188000000E1600000000A1E1000E15000000008F
:10189000E645000E150000000029A6000F14000008
:1018A00000006C06000F1400000000AE63000F1370
:1018B00000000000EEBF000F12000000002E1A0012
:1018C0001012000000006D7300101100000000AA4B
:1018D000CC00101000000000E624001010000000F2
:1018E00000217C00110F000000005BD400110E00ED
:1018F000000000932C00110E00000000CA840011AB
:101900000D0000000000DE00120C00000000343862
:1019100000120C00000000679400120B0000000091
:1019200098F100120A00000000C74F00120A0000E0
:101930000000F5B000120900000000211200130998
:10194000000000004C770013080000000075DF0065
:101950001307000000009C4900130700000000C1AD
:10196000B600130600000000E42600130600000085
:1019700000069900140500000000250F0014050062
:101980000000004389001404000000005F060014FA
:101990000400000000788700140300000000900C91
:1019A00000140300000000A69500140200000000CF
:1019B000BA2200140200000000CCB20014010000A2
:1019C0000000DB4700140100000000E9E000140003
:1019D00000000000F47E00140000000000FE1F0064
:1019E00014000000000005C50015FF00000F000BEB
:1019F0006F0015FF00000F000E1D0015FF00000F07
:101A0000000FD00015FE00000F000E870015FE002D
:101A1000000F000B430015FE00000F00050200152B
:101A2000FE00000F00FEC60014FD00000F00F48E43
:101A30000014FD00000F00E95A0014FD00000F0023
:101A4000DB2A0014FD00000F00CCFE0014FC000097
:101A50000F00BAD60014FC00000F00A6B20014FC60
:101A600000000F0090910014FC00000F007874003B
:101A700014FC00000F005F5B0014FC00000F00432B
:101A8000450014FC00000F0025330014FC00000F7B
:101A90000006230014FC00000F00E4170013FC00F4
:101AA000000F00C10E0013FC00000F009C08001383
:101AB000FC00000F0075050013FC00000F004C0433
:101AC0000013FC00000F0021050013FC00000F00B4
:101AD000F5090012FC00000F00C7100012FC000006
:101AE0000F0098180012FC00000F0067230012FC82
:101AF00000000F00342F0012FC00000F00003D001A
:101B000012FC00000F00CA4D0011FC00000F0093F2
:101B10005E0011FC00000F005B700011FC00000F64
:101B20000021840011FC00000F00E6990010FC0069
:101B3000000F00AAAF0010FC00000F006DC60010DF
:101B4000FC00000F002EDD0010FC00000F00EEF680
:101B5000000FFC00000F00AE0F000FFD00000F0093
:101B60006C28000FFD00000F002942000FFD00004F
:101B70000F00E65B000EFD00000F00A176000EFDD9
:101B800000000F005C90000EFD00000FD5E9E6F7A5
:101B9000FEFE0F0F0F4ACEB4EBFFFF0F0F0F3EC933
:101BA000A9E8FFFF0F0F0F6CC59FF8FFFF0F0F0F86
:101BB00060C0930DFFFF000F0F06BB870FFFFF00F4
:101BC0000F0FB7B679FEFFFF0F0F0FC5B06CF7FF11
:101BD000FF0F0F0F5DAB5D05FFFF000F0F92A54ECE
:101BE0000FFFFF000F0F6D9E3D03FFFF000F0F66FD
:101BF000982CF5FFFF0F0F0F7B911BFFFFFF0F0FBF
:101C00000F4B8A0811FFFF000F0FC283F509FFFE7B
:101C1000000F0F9A7CE1F3FFFE0F0F0F0F74CCF74C
:101C2000FFFE0F0F0F2A6DB711FFFE000F0F0365A8
:101C3000A113FFFE000F0F265C8AF5FFFE0F0F0FAA
:101C4000135473ECFFFE0F0F0F974B5B0CFFFE005E
:101C50000F0F8043431EFFFE000F0F83392AFCFF46
:101C6000FE0F0F0FA33011DFFFFE0F0F0FFA27F843
:101C700000FFFD000F0FC91DDE2AFFFD000F0F9EA4
:101C800013C40CFFFD000F0F4C09AAD3FFFD0F0F6B
:101C90000F68FF90EAFEFD0F0F0F2EF57636FEFD62
:101CA000000F0F8BEA5B2BFEFD000F0FCBDF42C84E
:101CB000FEFD0F0F0FC1D528BDFEFD0F0F0FF9CA96
:101CC0000F3EFEFD000F0FCBBFF671FEFC000F0FA5
:101CD000C0B4DDC1FEFC0F0F0FD4A8C633FEFC0F4D
:101CE0000F0FC19DAF43FEFC000F0FEB929989FED1
:101CF000FC020F0F468684BFFEFC030F0FEB7B70C8
:101D000089FEFC020F0FC16F5E43FEFC000F0FD473
:101D1000644D33FEFC0F0F0FC0593DC1FEFC0F0F89
:101D20000FCB4D2F71FEFC000F0FF942233EFEFC3E
:101D3000000F0FC13618BDFEFC0F0F0FCB2B10C8C4
:101D4000FEFC0F0F0F8B20092BFEFC000F0F2E1532
:101D50000536FEFC000F0F680A04EAFEFC0F0F0FA9
:101D60004CFF05D3FDFC0F0F0F9EF4080CFDFC008B
:101D70000F0FC9EA0E2AFDFC000F0FFAE01700FD55
:101D8000FC000F0FA3D623DFFDFC0F0F0F83CC3316
:101D9000FCFDFC0F0F0F80C3451EFDFC000F0F97CD
:101DA000BA5B0CFDFC000F0F13B174ECFDFC0F0FC0
:101DB0000F26A991F5FDFC0F0F0F03A1B213FDFC37
:101DC000000F0F2A99D611FDFC000F0F0F92FEF79E
:101DD000FDFC0F0F0F9A8B2AF3FDFD0F0F0FC2852D
:101DE0005A09FDFD000F0F4B7F8E11FDFD000F0FF7
:101DF0007B7AC6FFFDFD0F0F0F667502F5FDFE0F26
:101E00000F0F6D714303FDFE000F0F926D870FFDE5
:101E1000FE000F0F5D6AD005FDFE000F0FC5681DA7
:101E2000F7FDFF0F0F0FB7676FFEFDFF0F0F0F06D8
:101E300066C50FFDFF000F0F60661F0DFD00000F50
:101E4000006C667EF8FD000F0F003E68E0E8FD00C4
:101E50000F0F004A6A47EBFD010F0F00D56DB2F777
:101E6000FD010F0F0000712200FD02000F00007540
:101E70009500FD02000F00007B0C00FD03000F0029
:101E800000828700FD03000F0000890600FD0400AA
:101E90000F0000928900FD04000F00009B0F00FD61
:101EA00005000F0000A69900FD05000F0000B126F7
:101EB00000FD06000F0000BEB600FD06000F00008A
:101EC000CB4900FD07000F0000DADF00FD07000F1F
:101ED0000000EA7700FD08000F0000FB1200FD097A
:101EE000000F00000DB000FE09000F0000204F00A1
:101EF000FE0A000F000034F100FE0A000F00004A45
:101F00009400FE0B000F0000613800FE0C000F0073
:101F10000079DE00FE0C000F0000928400FE0D0030
:101F20000F0000AC2C00FE0E000F0000C8D400FE15
:101F30000E000F0000E57C00FE0F000F00000324E0
:101F400000FF10000F000023CC00FF10000F000066
:101F5000437300FF11000F0000651A00FF12000F0D
:101F6000000089BF00FF12000F0000AD6300FF13E7
:101F7000000F0000D30600FF14000F0000FAA600B7
:101F8000FF14000F00002245000015000000004C67
:101F9000E100001500000000777A00001600000044
:101FA00000A31100001700000000D0A400001700DB
:101FB000000000FF34000018000000002FC00001E6
:101FC000180000000060490001190000000092CDD7
:101FD00000011900000000C64C00011A00000000BA
:101FE000FAC700011A00000000303D00021B00008B
:101FF000000067AE00021B000000009F1A00021CD8
:1020000000000000D88000021C0000000013E10066
:10201000031C000000004E3C00031D000000008A6D
:102020009000031D00000000C8DF00031D00000039
:1020300000062700041E00000000456900041E0081
:1020400000000086A400041E00000000C7D80004A1
:102050001E00000000090600051F000000004B2DB7
:1020600000051F000000008F4C00051F000000004D
:10207000D36500051F00000000187700061F000050
:1020800000005E8200061F00000000A58500061FFC
:1020900000000000EC8200061F0000000033770003
:1020A000071F000000007B6500071F00000000C440
:1020B0004C00071F000000000D2D00081F0000004D
:1020C00000560600081F00000000A0D800081E00EF
:1020D000000000EAA400081E0000000034690009A6
:1020E0001E000000007E2700091E00000000C9DF5E
:1020F00000091D000000001390000A1D00000000F0
:102100005E3C000A1D00000000A9E1000A1C00005E
:102110000000F380000A1C000000003E1A000B1CA7
:102120000000000088AE000B1B00000000D33D0043
:102130000B1B000000001CC7000C1A00000000660A
:102140004C000C1A00000000AFCD000C190000007C
:1021500000F849000C190000000040C0000D1800F4
:102160000000008834000D1800000000CFA4000D0E
:1021700017000000001611000E17000000005C7A26
:10218000000E1600000000A1E1000E150000000086
:10219000E645000E150000000029A6000F140000FF
:1021A00000006C06000F1400000000AE63000F1367
:1021B00000000000EEBF000F12000000002E1A0009
:1021C0001012000000006D7300101100000000AA42
:1021D000CC00101000000000E624001010000000E9
:1021E00000217C00110F000000005BD400110E00E4
:1021F000000000932C00110E00000000CA840011A2
:102200000D0000000000DE00120C00000000343859
:1022100000120C00000000679400120B0000000088
:1022200098F100120A00000000C74F00120A0000D7
:102230000000F5B00012090000000021120013098F
:10224000000000004C770013080000000075DF005C
:102250001307000000009C4900130700000000C1A4
:10226000B600130600000000E4260013060000007C
:1022700000069900140500000000250F0014050059
:102280000000004389001404000000005F060014F1
:102290000400000000788700140300000000900C88
:1022A00000140300000000A69500140200000000C6
:1022B000BA2200140200000000CCB2001401000099
:1022C0000000DB4700140100000000E9E0001400FA
:1022D00000000000F47E00140000000000FE1F005B
:1022E00014000000000005C50015FF00000F000BE2
:1022F0006F0015FF00000F000E1D0015FF00000FFE
:10230000000FD00015FE00000F000E870015FE0024
:10231000000F000B430015FE00000F000502001522
:10232000FE00000F00FEC60014FD00000F00F48E3A
:102330000014FD00000F00E95A0014FD00000F001A
:10234000DB2A0014FD00000F00CCFE0014FC00008E
:102350000F00BAD60014FC00000F00A6B20014FC57
:1023600000000F0090910014FC00000F0078740032
:1023700014FC00000F005F5B0014FC00000F004322
:10238000450014FC00000F0025330014FC00000F72
:102390000006230014FC00000F00E4170013FC00EB
:1023A000000F00C10E0013FC00000F009C0800137A
:1023B000FC00000F0075050013FC00000F004C042A
:1023C0000013FC00000F0021050013FC00000F00AB
:1023D000F5090012FC00000F00C7100012FC0000FD
:1023E0000F0098180012FC00000F0067230012FC79
:1023F00000000F00342F0012FC00000F00003D0011
:1024000012FC00000F00CA4D0011FC00000F0093E9
:102410005E0011FC00000F005B700011FC00000F5B
:102420000021840011FC00000F00E6990010FC0060
:10243000000F00AAAF0010FC00000F006DC60010D6
:10244000FC00000F002EDD0010FC00000F00EEF677
:10245000000FFC00000F00AE0F000FFD00000F008A
:102460006C28000FFD00000F002942000FFD000046
:102470000F00E65B000EFD00000F00A176000EFDD0
:1024800000000F005C90000EFD00000FD5E9E6F79C
:10249000FEFE0F0F0F4ACEB4EBFFFF0F0F0F3EC92A
:1024A000A9E8FFFF0F0F0F6CC59FF8FFFF0F0F0F7D
:1024B00060C0930DFFFF000F0F06BB870FFFFF00EB
:1024C0000F0FB7B679FEFFFF0F0F0FC5B06CF7FF08
:1024D000FF0F0F0F5DAB5D05FFFF000F0F92A54EC5
:1024E0000FFFFF000F0F6D9E3D03FFFF000F0F66F4
:1024F000982CF5FFFF0F0F0F7B911BFFFFFF0F0FB6
:102500000F4B8A0811FFFF000F0FC283F509FFFE72
:10251000000F0F9A7CE1F3FFFE0F0F0F0F74CCF743
:10252000FFFE0F0F0F2A6DB711FFFE000F0F03659F
:10253000A113FFFE000F0F265C8AF5FFFE0F0F0FA1
:10254000135473ECFFFE0F0F0F974B5B0CFFFE0055
:102550000F0F8043431EFFFE000F0F83392AFCFF3D
:10256000FE0F0F0FA33011DFFFFE0F0F0FFA27F83A
:1025700000FFFD000F0FC91DDE2AFFFD000F0F9E9B
:1025800013C40CFFFD000F0F4C09AAD3FFFD0F0F62
:102590000F68FF90EAFEFD0F0F0F2EF57636FEFD59
:1025A000000F0F8BEA5B2BFEFD000F0FCBDF42C845
:1025B000FEFD0F0F0FC1D528BDFEFD0F0F0FF9CA8D
:1025C0000F3EFEFD000F0FCBBFF671FEFC000F0F9C
:1025D000C0B4DDC1FEFC0F0F0FD4A8C633FEFC0F44
:1025E0000F0FC19DAF43FEFC000F0FEB929989FEC8
:1025F000FC020F0F468684BFFEFC030F0FEB7B70BF
:1026000089FEFC020F0FC16F5E43FEFC000F0FD46A
:10261000644D33FEFC0F0F0FC0593DC1FEFC0F0F80
:102620000FCB4D2F71FEFC000F0FF942233EFEFC35
:10263000000F0FC13618BDFEFC0F0F0FCB2B10C8BB
:10264000FEFC0F0F0F8B20092BFEFC000F0F2E1529
:102650000536FEFC000F0F680A04EAFEFC0F0F0FA0
:102660004CFF05D3FDFC0F0F0F9EF4080CFDFC0082
:102670000F0FC9EA0E2AFDFC000F0FFAE01700FD4C
:10268000FC000F0FA3D623DFFDFC0F0F0F83CC330D
:10269000FCFDFC0F0F0F80C3451EFDFC000F0F97C4
:1026A000BA5B0CFDFC000F0F13B174ECFDFC0F0FB7
:1026B0000F26A991F5FDFC0F0F0F03A1B213FDFC2E
:1026C000000F0F2A99D611FDFC000F0F0F92FEF795
:1026D000FDFC0F0F0F9A8B2AF3FDFD0F0F0FC28524
:1026E0005A09FDFD000F0F4B7F8E11FDFD000F0FEE
:1026F0007B7AC6FFFDFD0F0F0F667502F5FDFE0F1D
:102700000F0F6D714303FDFE000F0F926D870FFDDC
:10271000FE000F0F5D6AD005FDFE000F0FC5681D9E
:10272000F7FDFF0F0F0FB7676FFEFDFF0F0F0F06CF
:1027300066C50FFDFF000F0F60661F0DFD00000F47
:10274000006C667EF8FD000F0F003E68E0E8FD00BB
:102750000F0F004A6A47EBFD010F0F00D56DB2F76E
:10276000FD010F0F0000712200FD02000F00007537
:102770009500FD02000F00007B0C00FD03000F0020
:1027800000828700FD03000F0000890600FD0400A1
:102790000F0000928900FD04000F00009B0F00FD58
:1027A00005000F0000A69900FD05000F0000B126EE
:1027B00000FD06000F0000BEB600FD06000F000081
:1027C000CB4900FD07000F0000DADF00FD07000F16
:1027D0000000EA7700FD08000F0000FB1200FD0971
:1027E000000F00000DB000FE09000F0000204F0098
:1027F000FE0A000F000034F100FE0A000F00004A3C
:102800009400FE0B000F0000613800FE0C000F006A
:102810000079DE00FE0C000F0000928400FE0D0027
:102820000F0000AC2C00FE0E000F0000C8D400FE0C
:102830000E000F0000E57C00FE0F000F00000324D7
:1028400000FF10000F000023CC00FF10000F00005D
:10285000437300FF11000F0000651A00FF12000F04
:10286000000089BF00FF12000F0000AD6300FF13DE
:10287000000F0000D30600FF14000F0000FAA600AE
:10288000FF14000F00002245000015000000004C5E
:10289000E100001500000000777A0000160000003B
:1028A00000A31100001700000000D0A400001700D2
:1028B000000000FF34000018000000002FC00001DD
:1028C000180000000060490001190000000092CDCE
:1028D00000011900000000C64C00011A00000000B1
:1028E000FAC700011A00000000303D00021B000082
:1028F000000067AE00021B000000009F1A00021CCF
:1029000000000000D88000021C0000000013E1005D
:10291000031C000000004E3C00031D000000008A64
:102920009000031D00000000C8DF00031D00000030
:1029300000062700041E00000000456900041E0078
:1029400000000086A400041E00000000C7D8000498
:102950001E00000000090600051F000000004B2DAE
:1029600000051F000000008F4C00051F0000000044
:10297000D36500051F00000000187700061F000047
:1029800000005E8200061F00000000A58500061FF3
:1029900000000000EC8200061F00000000337700FA
:1029A000071F000000007B6500071F00000000C437
:1029B0004C00071F000000000D2D00081F00000044
:1029C00000560600081F00000000A0D800081E00E6
:1029D000000000EAA400081E00000000346900099D
:1029E0001E000000007E2700091E00000000C9DF55
:1029F00000091D000000001390000A1D00000000E7
:102A00005E3C000A1D00000000A9E1000A1C000055
:102A10000000F380000A1C000000003E1A000B1C9E
:102A20000000000088AE000B1B00000000D33D003A
:102A30000B1B000000001CC7000C1A000000006601
:102A40004C000C1A00000000AFCD000C1900000073
:102A500000F849000C190000000040C0000D1800EB
:102A60000000008834000D1800000000CFA4000D05
:102A700017000000001611000E17000000005C7A1D
:102A8000000E1600000000A1E1000E15000000007D
:102A9000E645000E150000000029A6000F140000F6
:102AA00000006C06000F1400000000AE63000F135E
:102AB00000000000EEBF000F12000000002E1A0000
:102AC0001012000000006D7300101100000000AA39
:102AD000CC00101000000000E624001010000000E0
:102AE00000217C00110F000000005BD400110E00DB
:102AF000000000932C00110E00000000CA84001199
:102B00000D0000000000DE00120C00000000343850
:102B100000120C00000000679400120B000000007F
:102B200098F100120A00000000C74F00120A0000CE
:102B30000000F5B000120900000000211200130986
:102B4000000000004C770013080000000075DF0053
:102B50001307000000009C4900130700000000C19B
:102B6000B600130600000000E42600130600000073
:102B700000069900140500000000250F0014050050
:102B80000000004389001404000000005F060014E8
:102B90000400000000788700140300000000900C7F
:102BA00000140300000000A69500140200000000BD
:102BB000BA2200140200000000CCB2001401000090
:102BC0000000DB4700140100000000E9E0001400F1
:102BD00000000000F47E00140000000000FE1F0052
:102BE00014000000000005C50015FF00000F000BD9
:102BF0006F0015FF00000F000E1D0015FF00000FF5
:102C0000000FD00015FE00000F000E870015FE001B
:102C1000000F000B430015FE00000F000502001519
:102C2000FE00000F00FEC60014FD00000F00F48E31
:102C30000014FD00000F00E95A0014FD00000F0011
:102C4000DB2A0014FD00000F00CCFE0014FC000085
:102C50000F00BAD60014FC00000F00A6B20014FC4E
:102C600000000F0090910014FC00000F0078740029
:102C700014FC00000F005F5B0014FC00000F004319
:102C8000450014FC00000F0025330014FC00000F69
:102C90000006230014FC00000F00E4170013FC00E2
:102CA000000F00C10E0013FC00000F009C08001371
:102CB000FC00000F0075050013FC00000F004C0421
:102CC0000013FC00000F0021050013FC00000F00A2
:102CD000F5090012FC00000F00C7100012FC0000F4
:102CE0000F0098180012FC00000F0067230012FC70
:102CF00000000F00342F0012FC00000F00003D0008
:102D000012FC00000F00CA4D0011FC00000F0093E0
:102D10005E0011FC00000F005B700011FC00000F52
:102D20000021840011FC00000F00E6990010FC0057
:102D3000000F00AAAF0010FC00000F006DC60010CD
:102D4000FC00000F002EDD0010FC00000F00EEF66E
:102D5000000FFC00000F00AE0F000FFD00000F0081
:102D60006C28000FFD00000F002942000FFD00003D
:102D70000F00E65B000EFD00000F00A176000EFDC7
:102D800000000F005C90000EFD00000F000000002E
:102D90000000000000000000000000000000000033
:102DA0000000000000000000000000000000000023
:102DB0000000000000000000000000000000000013
:102DC0000000000000000000000000000000000003
:10308000000000000000000000000000FFFF01FF42
:10309000010703FFFFF33FFF02FFFF0FFF7F3F0723
:1030A000177F03FF0FFF3FFF3FFFFFFFFFFFFFFF04
:1030B000FF011F0F0F0000000000000013F7F700D2
:1030C000FF00FF0000FFFFF77F7F3F3F7F7F3F3F15
:1030D000F7FF010001FFFFFF01FF01FFFF1F0000DD
:1030E000FFFFFFFFFFFF00000000000013F7F700E5
:1030F000FF00FF0000FFFFF77F7F3F3F7F7F3F3FE5
:10310000F7FF010001FFFFFF01FF01FFFF1F0000AC
:10311000FFFFFFFFFFFF00000000000013F7F700B4
:10312000FF00FF0000FFFFF77F7F3F3F7F7F3F3FB4
:10313000F7FF010001FFFFFF01FF01FFFF1F00007C
:10314000FFFFFFFFFFFF00000000000013F7F70084
:10315000FF00FF0000FFFFF77F7F3F3F7F7F3F3F84
:10316000F7FF010001FFFFFF01FF01FFFF1F00004C
:10317000FFFFFFFFFFFFFFFF0F1FFFFF000000002B
:0C31800000000000000000000000000043
:04318C00800EE66E5D
:10319000C4DAE552706A500E716E020E726E100E35
:1031A000736E778E779C606A0F01506B0E01206BF7
:1031B000306B406B506B606B706B0D01F86B0F01E7
:1031C000006B090E016F026B010E036F046B090E99
:1031D000056F066B010E076F0C6B090E0D6F0E6B02
:1031E000010E0F6F0C6B090E0D6F0E6B010E0F6F42
:1031F000106B090E116F126B010E136F146B090E19
:10320000156F166B010E176F0D01606B090E616F64
:10321000626B010E636F646B090E656F666B010E66
:10322000676F686B080E696F6A6B6B6B706B716FA1
:10323000726B736B746B756F766B776B786B796F82
:103240007A6B7B6B806B816F826B836B846B856F1A
:10325000866B876B886B896F8A6B8B6B906B916FBA
:10326000926B936BD469D569100EE06F230EE16FFA
:10327000450EE26F670EE36FE46BE56BE66BE76BA1
:10328000F06BF16BF26BF26B0F01186B196B1A6B31
:103290001B6B19871C6B1D6B1E6B1F6B1D87E66AF2
:1032A0003CDAE5521200D9CFE6FFE1CFD9FF1A0E82
:1032B000E126D950060FE96EDACFEAFF400EEE6E36
:1032C0000F0EED6ED950080FE96EDACFEAFF300E1F
:1032D000EE6E0F0EED6ED9500A0FE96EDACFEAFFEF
:1032E000200EEE6E0F0EED6ED9500C0FE96EDACF98
:1032F000EAFF200EEE6E0E0EED6ED9500E0FE96E47
:10330000DACFEAFF300EEE6E0E0EED6ED950100FD2
:10331000E96EDACFEAFF400EEE6E0E0EED6ED9507A
:10332000120FE96EDACFEAFF500EEE6E0E0EED6E62
:10333000D950140FE96EDACFEAFF600EEE6E0E0E72
:10334000ED6ED950160FE96EDACFEAFF700EEE6E11
:103350000E0EED6E0D01F8417F0BE76E190EE7CFF3
:10336000DBFFDF6A080EDF5C01E3DED0D950060F19
:103370000B6EDF50020D0B50F324E96EDA50F4208F
:10338000EA6E020EEECFDBFF030EEDCFDBFF020E87
:10339000DBCF06F0030EDBCF07F0040E06C0DBFF29
:1033A000050E07C0DBFFDF50020810E2190EDBCF6D
:1033B000F3FFF390F342F3CFDBFFD950190FE96E1F
:1033C000DACFEAFFEF50010B01E1ACD0020EDBCF08
:1033D000E9FF030EDBCFEAFFEF50080B01E0A2D0BC
:1033E000FC0E0B6E020EDBCFE9FF030EDBCFEAFF14
:1033F0000B50EF16F70EDB50030B0B6E020EDBCFFC
:10340000E9FF030EDBCFEAFF0B50EF12F70EDBAC48
:1034100004D0F80EDB50400902D0F80EDB50E76E06
:10342000180EE7CFDBFF050EE76E020EDBCFE9FFDC
:10343000030EDBCFEAFFE750E926000EEA22180E62
:10344000DBCFEFFFF70EDBAA06D0010EF36E180EEE
:10345000F3CFDBFF02D0180EDB6ADBCFE6FFD950DB
:10346000FB0FE96EFF0EDA20EA6EEECFE6FFEECF3D
:10347000E6FFEECFE6FFEFCFE6FF010EE76E020EAE
:10348000DBCF0BF0030EDBCF0CF0E7500B26000E6A
:103490000C220BC0E6FF0CC0E6FF53D90D6E070EE1
:1034A000E15E0D50D950020FE96EDACFEAFF060E49
:1034B000EE26000EED22010EDB6AF80EDB50F36EF5
:1034C000010EDBCFF4FFF350F45C1AE2F90EDBCF10
:1034D000E9FFDB2AFA0EDBCFEAFF01E3DB2AEF503C
:1034E000E66E020EDBCFE9FFDB2A030EDBCFEAFF3D
:1034F00001E3DB2AE552E750EF6E010EDB2ADDD750
:10350000040EDBCFE9FF050EDBCFEAFFEF50040B23
:1035100007E1040EDBCFE9FF050EDBCFEAFFEF8604
:10352000010E03D0DF2A1ED7000E0B6E1A0EE15CCF
:1035300002E2E16AE552E16E0B50E552E7CFD9FFB6
:103540001200D9CFE6FFE1CFD9FF060EE126000138
:10355000FF6B74AE15D0070E6F14E66EAEDAE5524F
:10356000F3CFDEFFF4CFDDFFDECFE9FFDDCFEAFFF3
:10357000EF501F0B0001FF6FA49274AC0BD002D070
:10358000000EBFD0F70EDBCFE9FFF80EDBCFEAFF6E
:10359000EF86749CD9CFE9FFDACFEAFF020EEECFB7
:1035A000DBFF030EEDCFDBFFF70EDBCFE9FFF80EFD
:1035B000DBCFEAFFEF6ADECFE9FFDDCFEAFF050EE2
:1035C000E926000EEA22050EEFCFDBFFDB500F0BE2
:1035D000E66EF90EDBCFE9FFFA0EDBCFEAFFE5522C
:1035E000E750EF6ED950050FE96EDACFEAFFEF50E2
:1035F000400B07E0F70EDBCFE9FFF80EDBCFEAFF69
:10360000EF8CDECFE9FFDDCFEAFF020EE926000EE8
:10361000EA22050EEFCFDBFFD950050FE96EDACFB6
:10362000EAFFEF50080B0DE0F70EDBCFE9FFF80ED5
:10363000DBCFEAFFEF8A010EF36E050EF3CFDBFF5F
:1036400002D0050EDB6ADBCFE6FFFD0EDBCFE6FF27
:10365000FE0EDBCFE6FFDECF0BF0DDCF0CF0010E70
:103660000B26000E0C220BC0E6FF0CC0E6FF3DD976
:103670000D6E050EE15E0D50060EDE26000EDD22FB
:10368000F90EDBCFE9FFFA0EDBCFEAFF050EEFCF35
:10369000DBFF040EDB6A050EDB50F36E040EDBCF9E
:1036A000F4FFF350F45C19E2DFCFE9FFDF2A010EEB
:1036B000DBCFEAFF01E3DB2AEF50E66EFB0EDBCF48
:1036C000E9FFDB2AFC0EDBCFEAFF01E3DB2AE55250
:1036D000E750EF6E040EDB2ADED7A4AE08D0F70E5B
:1036E000DBCFE9FFF80EDBCFEAFFEF88A49E020EE6
:1036F000DBCFE9FF030EDBCFEAFFEF9E749E749EE3
:10370000010E0B6E060EE15C02E2E16AE552E16E2B
:103710000B50E552E7CFD9FF1200D9CFE6FFE1CF3A
:10372000D9FF1F0E6F16FE0EDB506F12E00E6E14E7
:103730000B6EFE0EDB500B5CF9E1E552E7CFD9FFD3
:103740001200D9CFE6FFE1CFD9FF020EE126D95012
:10375000F90F0B6EFF0EDA200BC0DEFFDD6EF80EE8
:10376000DB5031E1DECFE9FFDDCFEAFFEF50E8408B
:10377000E840E8401F0BE66EFD0EDBCFE9FFFE0ED2
:10378000DBCFEAFFE552E750EF6EDECFE9FFDDCF9A
:10379000EAFFEE52EF50200DF3CF0BF0FD0EDBCF22
:1037A000E9FFFE0EDBCFEAFFF350EF12FD0EDB2A3E
:1037B000FE0E01E3DB2ADECFE9FFDDCFEAFFEF50AB
:1037C000200DF3507ED0DECFE9FFDDCFEAFF020E01
:1037D000E926000EEA22EF50E00BE838E840E66EFA
:1037E000FD0EDBCFE9FFFE0EDBCFEAFFE552E7502F
:1037F000EF6EDECFE9FFDDCFEAFF030EE926000E14
:10380000EA22EF50080DF3CF0BF0FD0EDBCFE9FFFE
:10381000FE0EDBCFEAFFF350EF12FD0EDB2AFE0EA9
:1038200001E3DB2ADECFE9FFDDCFEAFF020EE92666
:10383000000EEA22EF50080DF350E00BE66EFD0E8D
:10384000DBCFE9FFFE0EDBCFEAFFE552E750EF6E7C
:10385000FD0EDBCFE9FFFE0EDBCFEAFFEF86DECF0A
:10386000E9FFDDCFEAFF020EE926000EEA22EF5063
:10387000030B0B6EFD0EDBCFE9FFFE0EDBCFEAFF85
:103880000B50EF12FD0EDB2AFE0E01E3DB2ADECF2A
:10389000E9FFDDCFEAFFEE52EF50E66EFD0EDBCF23
:1038A000E9FFFE0EDBCFEAFFE552E750EF6EFD0EBB
:1038B000DB2AFE0E01E3DB2ADECFE9FFDDCFEAFFE4
:1038C000EF50E66EFD0EDBCFE9FFFE0EDBCFEAFF29
:1038D000E552E750EF6E020EE15C02E2E16AE5526A
:1038E000E16EE552E7CFD9FF1200D9CFE6FFE1CF75
:1038F000D9FF020EE126FB0EDBCFDEFFDBCFDDFFC3
:10390000FA0EDB504CE1FD0EDBCFE9FFFE0EDBCF04
:10391000EAFFEF50080DF350E66EDECFE9FFDDCF92
:10392000EAFFE552E750EF6EFD0EDBCFE9FFFE0E3A
:10393000DBCFEAFFEF50E00BE838E840E66EDECF81
:10394000E9FFDDCFEAFFEE52E552E750EF6EFD0EE4
:10395000DB2AFE0E01E3DB2AFD0EDBCFE9FFFE0EC4
:10396000DBCFEAFFEF50E00BE838E840DECFE9FFBD
:10397000DDCFEAFFE850EF12DECFE9FFDDCFEAFF4F
:10398000020EE926000EEA22EF6ADECFE9FFDDCF64
:10399000EAFF030EE926000EEA22EF6A84D0FD0E4C
:1039A000DBCFE9FFFE0EDBCFEAFFEF50200DF35037
:1039B000E66EDECFE9FFDDCFEAFF020EE926000E5C
:1039C000EA22E552E750EF6EFD0EDBCFE9FFFE0E77
:1039D000DBCFEAFFEF50E840E840E8401F0BE66E1F
:1039E000DECFE9FFDDCFEAFF030EE926000EEA2273
:1039F000E552E750EF6EFD0EDB2AFE0E01E3DB2AF7
:103A0000FD0EDBCFE9FFFE0EDBCFEAFFEF50030B2D
:103A10000B6EDECFE9FFDDCFEAFF020EE926000ED6
:103A2000EA220B50EF12FD0EDBCFE9FFFE0EDBCFDB
:103A3000EAFFEF50E00BE840E840E8401F0B0B6E58
:103A4000DECFE9FFDDCFEAFF020EE926000EEA2213
:103A50000B50EF12FD0EDB2AFE0E01E3DB2AFD0EFA
:103A6000DBCFE9FFFE0EDBCFEAFFEF50E66EDECFE5
:103A7000E9FFDDCFEAFFEE52E552E750EF6EFD0EB3
:103A8000DB2AFE0E01E3DB2AFD0EDBCFE9FFFE0E93
:103A9000DBCFEAFFEF50E66EDECFE9FFDDCFEAFFD6
:103AA000E552E750EF6E020EE15C02E2E16AE55298
:103AB000E16EE552E7CFD9FF1200D9CFE6FFE1CFA3
:103AC000D9FF020EE126FE0EDB50060A24E0030AAF
:103AD0001EE0010A18E0070A12E0010A0CE0030ADE
:103AE00006E0010A1CE1600EDE6E0F0E1BD0500EC8
:103AF000DE6E0F0E17D0200EDE6E0E0E13D0300EBF
:103B0000DE6E0E0E0FD0400EDE6E0E0E0BD0500E7F
:103B1000DE6E0E0E07D0600EDE6E0E0E03D0700E3F
:103B2000DE6E0E0EDD6EDECF0BF0DDCF0CF00BC0C7
:103B3000F3FF0CC0F4FF020EE15C02E2E16AE55221
:0A3B4000E16EE552E7CFD9FF120055
:063B4A00D9CFE6FFE1CF38
:103B5000D9FFE652AFEC2CF0E66A5CEC30F0E552AF
:103B6000C80EE66EE66A99EC30F0E552E55278EC64
:103B700030F0010806E10101010ED26FE66A5BDB5D
:103B800021D0E66A6AEC30F0E552010EE66E5CEC9C
:103B900030F0E5520101020ED26F150EE66EE66AB4
:103BA000E66A69DAE552E552E552DF6E000EDF8023
:103BB000DFCFE6FF150EE66EE66AE66A7CDAE552CE
:103BC000E552E552E552080EE66E150EE66EE66A1F
:103BD000E66A71DAE552E552E552E552E552E55200
:103BE000E7CFD9FF1200CBEC2CF00101D26B120011
:103BF000D9CFE6FFE1CFD9FF060EE1260101D205BC
:103C000005E0FE0EDBCFE6FFC1DAE552FB0EDB502E
:103C10000101A55D4CE3DF6AFB0EDB50DF5C45E292
:103C2000010EDB6A040EF36E010EDBCFF4FFF350DE
:103C3000F45C35E2A451080DF3CF11F0F4CF12F08B
:103C4000630E1126010E1222010EDB50020D1150DF
:103C5000F324E96E1250F420EA6EEECF0FF0EFCFAE
:103C600010F0FC0EDBCF0DF0FD0EDBCF0EF0DF50C1
:103C7000080D0D50F3240B6E0E50F4200C6E010E47
:103C8000DB50020D0B50F324E96E0C50F420EA6E69
:103C90000FC0EEFF10C0EDFF010EDB2AC3D7A42B2F
:103CA000070EA417A507DF2AB7D7000E01D0EB0E29
:103CB0000B6E060EE15C02E2E16AE552E16E0B502A
:103CC000E552E7CFD9FF1200D9CFE6FFE1CFD9FF08
:103CD000020E0101D25D05E0FE0EDBCFE6FFABDA9E
:103CE000E552D950FC0FE96EFF0EDA20EA6E010EA4
:103CF000D890EE36ED36E806FBE1D950FC0FE96EC0
:103D0000FF0EDA20EA6EEE52ED8E58EC30F0FC0E2B
:103D1000DBCFE6FFFD0EDBCFE6FFFE0EDBCFE6FFDF
:103D200071EC2DF0E552E552E552F80EDBCFE6FFDF
:103D3000F90EDBCFE6FFFA0EDBCFE6FFFB0EDBCFA3
:103D4000E6FFFE0EDBCFE6FF04EC2DF00B6E050E5A
:103D5000E15E0B505AEC30F0E552E7CFD9FF12008C
:103D6000D9CFE6FFE1CFD9FF020E0101D25D05E018
:103D7000FE0EDBCFE6FF5FDAE552D950FC0FE96EAD
:103D8000FF0EDA20EA6E010ED890EE36ED36E80628
:103D9000FBE158EC30F0FC0EDBCFE6FFFD0EDBCF95
:103DA000E6FFFE0EDBCFE6FF71EC2DF0E552E552AB
:103DB000E552F80EDBCFE6FFF90EDBCFE6FFFA0E99
:103DC000DBCFE6FFFB0EDBCFE6FFFE0EDBCFE6FF31
:103DD000DAEC2CF00B6E050EE15E0B505AEC30F075
:103DE000000EE552E7CFD9FF1200D9CFE6FFE1CFB1
:103DF000D9FF030E0101D25D05E0FE0EDBCFE6FF29
:103E000075DAE552FE0EDBCFE6FFABDAE5520108CC
:103E1000F9E158EC30F0030EE66EFE0EDBCFE6FF64
:103E200058EC2DF0E552E552FC0EDBCFE6FFFD0E1F
:103E3000DBCFE6FFFE0EDBCFE6FF71EC2DF0E552A7
:103E4000E552E552F80EDBCFE6FFF90EDBCFE6FFD9
:103E5000FA0EDBCFE6FFFB0EDBCFE6FFFE0EDBCF7D
:103E6000E6FF04EC2DF00B6E050EE15E0B505AECF4
:103E700030F0000EE552E7CFD9FF1200D9CFE6FFB0
:103E8000E1CFD9FF080EE126DE6ADD6A030E0101EB
:103E9000D25D05E0FE0EDBCFE6FF28DAE552FE0E2E
:103EA000DBCFE6FF5EDAE5520108F9E1F80EDBCF81
:103EB00006F0F90EDBCF07F0040E06C0DBFF050E9F
:103EC00007C0DBFFD950040FE96EDACFEAFF000E1E
:103ED000D880EE54000EED5401E3C0D0FC0EDBCFD1
:103EE0000DF0FD0EDBCF0EF0DE500D240B6EDD501D
:103EF0000E200C6E020E0BC0DBFF030E0CC0DBFFAE
:103F0000020EDBCF0BF0030E00010C6A1F0E0B1626
:103F1000000ED8800B54000E0C5424E2020EDBCFAE
:103F20000BF0030E0C6A1F0E0B16200ED8800B56DA
:103F3000000E0C56060E0BC0DBFF070E0CC0DBFF9D
:103F4000040EDBCF0BF0050EDBCF0CF0060EDBCF43
:103F50000DF0070EDBCF0EF00D500B5C0E500C5821
:103F600020E20BD0040EDBCF0BF0050EDBCF0CF004
:103F7000200E0B5C000E0C580DE2040EDBCF06F099
:103F8000050EDBCF07F0060E06C0DBFF070E07C0ED
:103F9000DBFF07D0200EF36E060EF3CFDBFF070E1C
:103FA000DB6A58EC30F0060EE66EFE0EDBCFE6FF65
:103FB00058EC2DF0E552E5525AEC30F058EC30F068
:103FC000020EE66EFE0EDBCFE6FF58EC2DF0E5525A
:103FD000E552020EDBCFE6FF030EDBCFE6FFFE0E5F
:103FE000DBCFE6FF71EC2DF0E552E552E552060E0F
:103FF000DBCFE6FF070EDBCFE6FFFA0EDBCF0DF0DF
:10400000FB0EDBCF0EF0DE500D240B6EDD500E20CC
:104010000C6E0BC0E6FFE66EFE0EDBCFE6FFDAECC1
:104020002CF00F6E050EE15E0F505AEC30F0FE0ED4
:10403000DBCFE6FF96D9E5520108F9E1060EDBCFAA
:104040000BF0070EDBCF0CF0D950040FE96EDACF7E
:10405000EAFF0B50EE5E0C50ED5A34D7000E0B6E9B
:10406000080EE15C02E2E16AE552E16E0B50E552B6
:10407000E7CFD9FF1200D9CFE6FFE1CFD9FFE65253
:10408000010EE66EE66AD9CFE6FFDACFE6FFFC0E58
:10409000DBCFE6FFFD0EDBCFE6FFFE0EDBCFE6FF5C
:1040A00013DE0B6E070EE15E0B50DF50E552E5525A
:1040B000E7CFD9FF1200D9CFE6FFE1CFD9FF010E3C
:1040C000E66EE66AD950FB0FE66EFF0EDA20E66E6A
:1040D000FC0EDBCFE6FFFD0EDBCFE6FFFE0EDBCFF7
:1040E000E6FF3EDE0B6E070EE15E0B50E552E7CFBA
:1040F000D9FF1200D9CFE6FFE1CFD9FFE652010E7A
:10410000E66EE66AD9CFE6FFDACFE6FFFC0EDBCF3C
:10411000E6FFFD0EDBCFE6FFFE0EDBCFE6FF65DE42
:104120000B6E070EE15E0B50DF50E552E552E7CF14
:10413000D9FF1200D9CFE6FFE1CFD9FF010EE66E1D
:10414000E66AD950FB0FE66EFF0EDA20E66EFC0E33
:10415000DBCFE6FFFD0EDBCFE6FFFE0EDBCFE6FF9B
:104160008DDE0B6E070EE15E0B50E552E7CFD9FFF7
:104170001200D9CFE6FFE1CFD9FFFE0EDBCFE6FF7D
:104180005AD8E552E552E7CFD9FF1200D9CFE6FF62
:10419000E1CFD9FF0A0EE1260101D20542E0020E6D
:1041A000D25D05E0FE0EDBCFE6FF45D8E552090EF5
:1041B000E66E150EE66EE66AFE0EDBCFE6FF7BDFEF
:1041C000E552E552E552E552150EE66EE66AFE0E40
:1041D000DBCFE6FF50DFE552E552E552DF6EE66ADF
:1041E0005CEC30F0E552010EE66E040EE66EE66A17
:1041F000FE0EDBCFE6FF5FDFE552E552E552E5520A
:104200000101A36BA46BA56B8E0EE66E430EE66EEA
:104210007BEC30F0E552E5528AEC30F00101010E02
:10422000D26F0A0EE15C02E2E16AE552E16EE5520C
:10423000E7CFD9FF1200D9CFE6FFE1CFD9FFE65291
:10424000020E0101D25D4DE0D20525E18EEC30F089
:10425000000EE66EE66AE66EE66AE66AFE0EDBCF02
:10426000E6FF2EEC2DF00B6E060EE15E0B5058ECC7
:1042700030F0030EE66EE66AD40EE66E010EE66ED0
:10428000FE0EDBCFE6FFDAEC2CF00B6E050EE15EE6
:104290000B505AEC30F0E66A6AEC30F0E552010E51
:1042A000E66E5CEC30F0E5520101020ED26F150EA5
:1042B000E66EE66AFE0EDBCFE6FFDDDEE552E55296
:1042C000E552DF6E000EDF80DFCFE6FF150EE66EF3
:1042D000E66AFE0EDBCFE6FFEEDEE552E552E55282
:1042E000E552E552E552E7CFD9FF1200D9CFE6FFFC
:1042F000E1CFD9FF030E0101D25D10E0020ED25DC5
:1043000005E0FE0EDBCFE6FF96DFE552010EE66E1E
:104310006AEC30F0E5520101030ED26FE552E7CFAF
:10432000D9FF1200D9CFE6FFE1CFD9FFE65258EC12
:1043300030F0050EE66EFE0EDBCFE6FF58EC2DF0FA
:10434000E552E552FE0EDBCFE6FF3EEC2DF0E552E6
:10435000DF6E5AEC30F0DF50E552E552E7CFD9FF7F
:104360001200D9CFE6FFE1CFD9FFE652FE0EDBCF38
:10437000E6FFD8DFE552DF6E010EDF1402E0000E2B
:1043800001D0010EE552E552E7CFD9FF1200D9CF97
:10439000E6FFE1CFD9FF0C0EE1260101010EA76F68
:1043A000A66B8EEC30F058EC30F00101D20502E142
:1043B000010ED36F0C0EE15C02E2E16AE552E16EA0
:1043C000E552E7CFD9FF12000101D35112003CECB6
:1043D00033F0E66E06D8E5520009F9E10101D36B2E
:1043E0001200D9CFE6FFE1CFD9FF0101A751030A9F
:1043F0000CE0010A04E0030A3AE1020E04D0FE0ECA
:10440000DBCFA8F1030EA76F32D0A8C10FF00FC009
:1044100010F00F6AFE0EDB500F100D6E10C00EF084
:10442000A351080DF3CF0BF0F4CF0CF0630E0B2665
:10443000010E0C22A651020D0B50F324E96E0C5014
:10444000F420EA6E0DC0EEFF0EC0EDFF010EA76F67
:10445000A62B040EA65D0BE15AEC30F00101A32B54
:10446000070EA317A52B8AEC30F0000E01D0010E29
:08447000E552E7CFD9FF12006D
:08447800D9CFE6FFE1CFD9FF27
:104480000001C569C46BC66BF26AFD0EDBCFC7F0D5
:10449000FE0EDBCFC8F0E16BE26BE36BC751C811D6
:1044A00019E0E20EE66E440EE66EF6EC2FF0E552F1
:1044B000E552920EE66E09EC33F0E552C7C0E6FF16
:1044C000C8C0E6FFEDEC32F0E552E552F184F28A25
:1044D0000001E46BD08EF28CF28EE552E7CFD9FF6B
:1044E0001200F2A412D00001010EE46FF294C7C0D2
:1044F000E6FFC8C0E6FFEDEC32F0E552E552000100
:10450000C02B000EC123C223C3231200D9CFE6FF64
:10451000E1CFD9FFFE0EDB500C0DF3CFE9FFF4CF56
:10452000EAFF600EE926000EEA22090EE926000ED7
:10453000EA22EF90E552E7CFD9FF1200D9CFE6FF8C
:10454000E1CFD9FFFE0EDB500C0DF3CFE9FFF4CF26
:10455000EAFF600EE926000EEA22090EE926000EA7
:10456000EA22EF80E552E7CFD9FF1200D9CFE6FF6C
:10457000E1CFD9FFFE0EDB500C0DF3CFE9FFF4CFF6
:10458000EAFF600EE926000EEA22040EE926000E7C
:10459000EA22EE6AED6AE552E7CFD9FF1200D9CFE1
:1045A000E6FFE1CFD9FFE652080E0001C45D19E233
:1045B000DF6A080EDF5C15E2DF500C0DF3CFE9FF78
:1045C000F4CFEAFF600EE926000EEA220A0EE92681
:1045D000000EEA22EE50ED1002E1DF5003D0DF2A98
:1045E000E8D7FF0EE552E552E7CFD9FF1200D9CF49
:1045F000E6FFE1CFD9FFE652D2DFDF6EFF0EDF5CD0
:1046000001E1BFD0DF500BE10001C45103E1000123
:10461000616902D0C5C061F00001C56B39D0070ED9
:104620000001C45D0DE1DF500C0DF3CFE9FFF4CFC5
:10463000EAFF600EE926000EEA22EE52EF6828D06B
:10464000DF040C0DF3CFE9FFF4CFEAFF600EE9269B
:10465000000EEA22EE52EF50E66EDF500C0DF3CF63
:10466000E9FFF4CFEAFF600EE926000EEA22EE52DF
:10467000E552E750EF6EDF040C0DF3CFE9FFF4CF06
:10468000EAFF600EE926000EEA22EE52DFCFEFFFCE
:10469000DF500C0DF3CFE9FFF4CFEAFF600EE926FF
:1046A000000EEA220A0EE926000EEA22FD0EDBCFFA
:1046B000EEFFFE0EDBCFEDFFDF500C0DF3CFE9FF79
:1046C000F4CFEAFF600EE926000EEA22FC0EDBCFF3
:1046D000EFFFDF500C0DF3CFE9FFF4CFEAFF600EE0
:1046E000E926000EEA22020EE926000EEA22FA0E60
:1046F000DBCFEEFFFB0EDBCFEDFFDF500C0DF3CF7A
:10470000E9FFF4CFEAFF600EE926000EEA22040E6C
:10471000E926000EEA22EE6AED6ADF500C0DF3CFB7
:10472000E9FFF4CFEAFF600EE926000EEA22060E4A
:10473000E926000EEA22F90EDBCFEFFFDF500C0D69
:10474000F3CFE9FFF4CFEAFF600EE926000EEA227C
:10475000070EE926000EEA22EE6AED6ADF500C0D24
:10476000F3CFE9FFF4CFEAFF600EE926000EEA225C
:10477000090EE926000EEA22010EEF6EC42BDF506F
:1047800001D0FF0EE552E552E7CFD9FF1200D9CF95
:10479000E6FFE1CFD9FFE6520001C451000872E202
:1047A000C40502E1C56948D0FE0EDB500FE1FE0EE4
:1047B000DB500C0DF3CFE9FFF4CFEAFF600EE926E2
:1047C000000EEA22EE52EFCFC5F036D0FE0EDB042B
:1047D000DF6E000EDF5C30E3DF500C0DF3CFE9FF3E
:1047E000F4CFEAFF600EE926000EEA220A0EE9265F
:1047F000000EEA22EE50ED101DE0FE0EDB500C0D17
:10480000F3CFE9FFF4CFEAFF600EE926000EEA22BB
:10481000EE52EF50E66EDF500C0DF3CFE9FFF4CF10
:10482000EAFF600EE926000EEA22EE52E552E7505A
:10483000EF6E02D0DF06CDD7FE0EDB500C0DF3CFAE
:10484000E9FFF4CFEAFF600EE926000EEA22EE52FD
:10485000EF50FF0802E10001C66BFE0EDB500C0DAD
:10486000F3CFE9FFF4CFEAFF600EE926000EEA225B
:104870000A0EE926000EEA22EE6AED6A0001C4077C
:10488000010E01D0000EE552E552E7CFD9FF12002C
:10489000D9CFE6FFE1CFD9FFFE0EDB500C0DF3CFF1
:1048A000E9FFF4CFEAFF600EE926000EEA22070EC8
:1048B000E926000EEA22FC0EDBCFEEFFFD0EDBCF79
:1048C000EDFFE552E7CFD9FF1200D9CFE6FFE1CFE8
:1048D000D9FFFE0EDB500C0DF3CFE9FFF4CFEAFF5A
:1048E000600EE926000EEA22070EE926000EEA22F3
:1048F000EE6AED6AE552E7CFD9FF1200D9CFE6FFA5
:10490000E1CFD9FFE652FE0EDB500C0DF3CFE9FFED
:10491000F4CFEAFF600EE926000EEA22070EE92630
:10492000000EEA22EE50ED1002E0010E01D0000E62
:10493000E552E552E7CFD9FF1200D9CFE6FFE1CF2C
:10494000D9FF040EE126020EDB6A030EDB6A0001CA
:10495000C451FDE0C6510C0DF3CFE9FFF4CFEAFFDF
:10496000600EE926000EEA22060EE926000EEA2273
:10497000EF5001E1D7D0C6510C0DF3CFE9FFF4CFD2
:10498000EAFF600EE926000EEA22040EE926000E78
:10499000EA22EE50ED1001E0C5D0C6510C0DF3CF68
:1049A000E9FFF4CFEAFF600EE926000EEA22070EC7
:1049B000E926000EEA22EE50ED1001E0B3D0C6C0A9
:1049C000E6FF18D9E552F3CFDEFFF4CFDDFFD9CFF4
:1049D000E9FFDACFEAFFEE50ED1013E0DECFE9FF9A
:1049E000DDCFEAFFEF500001C65D0BE1DECFE9FF4E
:1049F000DDCFEAFFEE52020EEECFDBFF030EEDCF6E
:104A0000DBFF0001C6510C0DF3CFE9FFF4CFEAFF45
:104A1000600EE926000EEA22090EE926000EEA22BF
:104A2000EF50010B23E0C6510C0DF3CFE9FFF4CF9B
:104A3000EAFF600EE926000EEA220A0EE926000EC1
:104A4000EA22EECF0BF0EFCF0CF0020EDBCFE6FF49
:104A5000030EDBCFE6FFC6C0E6FF04D00CC0FAFFB2
:104A60000B50F96EFBDFE552E552E5520001C651ED
:104A70000C0DF3CFE9FFF4CFEAFF600EE926000E3C
:104A8000EA22060EE926000EEA22EF5005E1C6C032
:104A9000E6FF7DDEE55220D0C6510C0DF3CFE9FFD5
:104AA000F4CFEAFF600EE926000EEA22060EE926A0
:104AB000000EEA22EF50FF080FE0C6510C0DF3CFB5
:104AC000E9FFF4CFEAFF600EE926000EEA22060EA7
:104AD000E926000EEA22EF060001C6510C0DF3CFC5
:104AE000E9FFF4CFEAFF600EE926000EEA22020E8B
:104AF000E926000EEA22EECF0BF0EFCF0CF0C65104
:104B00000C0DF3CFE9FFF4CFEAFF600EE926000EAB
:104B1000EA22040EE926000EEA220BC0EEFF0CC0CA
:104B2000EDFF49D0E45147E0C6510C0DF3CFE9FF4A
:104B3000F4CFEAFF600EE926000EEA22070EE9260E
:104B4000000EEA22D880EE54000EED5410E2C65159
:104B50000C0DF3CFE9FFF4CFEAFF600EE926000E5B
:104B6000EA22070EE926000EEA22EE06ED5AC651A9
:104B70000C0DF3CFE9FFF4CFEAFF600EE926000E3B
:104B8000EA22040EE926000EEA22D880EE54000E36
:104B9000ED5410E2C6510C0DF3CFE9FFF4CFEAFF5C
:104BA000600EE926000EEA22040EE926000EEA2233
:104BB000EE06ED5AE46BC6510C0DF3CFE9FFF4CFCE
:104BC000EAFF600EE926000EEA22EE52EF50FF08DF
:104BD00003E1C5C0C6F0BBD6C6510C0DF3CFE9FF4B
:104BE000F4CFEAFF600EE926000EEA22EE52EFCF84
:104BF000C6F0ADD6D9CFE6FFE1CFD9FF020EE12650
:104C0000DE6ADD6A0001E15123E0E351030DF3CFD9
:104C10000BF0F4CF0CF0C90E0B26000E0C220BC0CB
:104C2000DEFF0CC0DDFFDECFE9FFDDCFEAFFEFCF17
:104C30000BF0FE0EDB500B5C02E1E107E32BDECF55
:104C40000BF0DDCF0CF00BC0F3FF0CC0F4FF02D073
:104C5000F36AF46A020EE15C02E2E16AE552E16E97
:104C6000E552E7CFD9FF1200D9CFE6FFE1CFD9FF58
:104C7000030EE126FE0EDBCFE6FF41D8E552E76EDC
:104C8000020EE7CFDBFFDB50FF082CE0040E000133
:104C9000E15D28E2E251030DF3CF0BF0F4CF0CF00D
:104CA000C90E0B26000E0C220BC0DEFF0CC0DDFF70
:104CB000DECFE9FFDDCFEAFF020EDBCFEFFFDECF75
:104CC000E9FFDDCFEAFFEE52FC0EDBCFEEFFFD0E7B
:104CD000DBCFEDFFE12BE22B040EE25D01E1E26BA5
:104CE000010E01D0000E0B6E030EE15C02E2E16AE0
:104CF000E552E16E0B50E552E7CFD9FF1200D9CF54
:104D0000E6FFE1CFD9FF020EE126FE0EDB5018E0F0
:104D1000DF6A080EDF5C14E2DF500C0DF3CFE9FF11
:104D2000F4CFEAFF600EE926000EEA22EFCF0BF087
:104D3000FE0EDB500B5C02E1DF5003D0DF2AE9D727
:104D4000FF0E0B6E020EE15C02E2E16AE552E16EDB
:104D50000B50E552E7CFD9FF1200C0C004F0C1C02C
:0C4D600005F0C2C006F0C3C007F012004E
:044D6C00D9CFE6FFB6
:104D7000E1CFD9FFE150FD0FE96EFF0EDA20EA6EB8
:104D8000EE50ED1059E0D950FB0FE96EFF0EDA201E
:104D9000EA6EEE50ED1050E0FD0EDBCFE9FFFE0EA7
:104DA000DBCFEAFFFB0EDBCFEEFFFC0EDBCFEDFF30
:104DB000F90EDBCFE6FFFA0EDB50E552E702F350C7
:104DC000E66EFD0EDBCFE9FFFE0EDBCFEAFF020E43
:104DD000E926000EEA22E552E750EF6EFD0EDBCF2A
:104DE000E9FFFE0EDBCFEAFF030EE926000EEA2202
:104DF000EF6AFD0EDBCFE9FFFE0EDBCFEAFF040E0C
:104E0000E926000EEA22F90EDBCFEFFFFD0EDBCF25
:104E1000E9FFFE0EDBCFEAFF050EE926000EEA22CF
:104E2000EF6AFD0EDBCFE9FFFE0EDBCFEAFF060ED9
:104E3000E926000EEA22EF6AE552E7CFD9FF120019
:104E4000D9CFE6FFE1CFD9FFFD0EDBCFE9FFFE0EA4
:104E5000DBCFEAFF030EE926000EEA22EFCF0BF0CC
:104E6000FD0EDBCFE9FFFE0EDBCFEAFF020EE926E7
:104E7000000EEA22EF500B5C01E37ED0FD0EDBCF8B
:104E8000E9FFFE0EDBCFEAFF040EE926000EEA2260
:104E9000EF50E66EE66AFB0EDBCFE6FFFC0EDBCFE3
:104EA000E6FFFD0EDBCFE9FFFE0EDBCFEAFF050ECE
:104EB000E926000EEA22EF500D6E0E6AFD0EDBCFE2
:104EC000E9FFFE0EDBCFEAFF0D50EE240B6E0E5015
:104ED000EE200C6E0BC0E6FFE66E7BEC32F00F6E40
:104EE000060EE15E0F50FD0EDBCFE9FFFE0EDBCFBD
:104EF000EAFF040EE926000EEA22EFCF0BF0FD0ECA
:104F0000DBCFE9FFFE0EDBCFEAFF050EE926000E40
:104F1000EA220B50EF26FD0EDBCFE9FFFE0EDBCFC2
:104F2000EAFF050EE926000EEA22EFCF0BF0FD0E98
:104F3000DBCFE9FFFE0EDBCFEAFF020EE926000E13
:104F4000EA22EF500B5C0BE3FD0EDBCFE9FFFE0E18
:104F5000DBCFEAFF050EE926000EEA22EF6AFD0E1E
:104F6000DBCFE9FFFE0EDBCFEAFF030EE926000EE2
:104F7000EA22EF2A010E01D0000EE552E7CFD9FF59
:104F80001200D9CFE6FFE1CFD9FF020EE126FD0ED8
:104F9000DBCFE9FFFE0EDBCFEAFF030EE926000EB2
:104FA000EA22EF506BE0FD0EDBCFE9FFFE0EDBCF18
:104FB000EAFF060EE926000EEA22EF500D6E0E6A99
:104FC000FD0EDBCFE9FFFE0EDBCFEAFF0D50EE2436
:104FD0000B6E0E50EE200BC0DEFFDD6EFD0EDBCF44
:104FE000E9FFFE0EDBCFEAFF040EE926000EEA22FF
:104FF000EFCF0BF0FD0EDBCFE9FFFE0EDBCFEAFFBC
:10500000060EE926000EEA220B50EF26FD0EDBCF3E
:10501000E9FFFE0EDBCFEAFF060EE926000EEA22CC
:10502000EFCF0BF0FD0EDBCFE9FFFE0EDBCFEAFF8B
:10503000020EE926000EEA22EF500B5C0BE3FD0E98
:10504000DBCFE9FFFE0EDBCFEAFF060EE926000EFE
:10505000EA22EF6AFD0EDBCFE9FFFE0EDBCFEAFFAF
:10506000030EE926000EEA22EF06DECF0BF0DDCFBD
:105070000CF00BC0F3FF0CC0F4FF02D0F36AF46A2B
:10508000020EE15C02E2E16AE552E16EE552E7CF31
:10509000D9FF1200D9CFE6FFE1CFD9FF020EE126FA
:1050A000FD0EDBCFE9FFFE0EDBCFEAFF030EE926A4
:1050B000000EEA22EF5024E0FD0EDBCFE9FFFE0EEA
:1050C000DBCFEAFF060EE926000EEA22EF500D6E56
:1050D0000E6AFD0EDBCFE9FFFE0EDBCFEAFF0D50BF
:1050E000EE240B6E0E50EE200BC0DEFFDD6EDECF29
:1050F0000BF0DDCF0CF00BC0F3FF0CC0F4FF02D0BF
:10510000F36AF46A020EE15C02E2E16AE552E16EE2
:10511000E552E7CFD9FF1200D9CFE6FFE1CFD9FFA3
:10512000FD0EDBCFE9FFFE0EDBCFEAFF030EE92623
:10513000000EEA22EF5049E0FD0EDBCFE9FFFE0E44
:10514000DBCFEAFF040EE926000EEA22EFCF0BF0D8
:10515000FD0EDBCFE9FFFE0EDBCFEAFF060EE926F0
:10516000000EEA220B50EF26FD0EDBCFE9FFFE0E0C
:10517000DBCFEAFF060EE926000EEA22EFCF0BF0A6
:10518000FD0EDBCFE9FFFE0EDBCFEAFF020EE926C4
:10519000000EEA22EF500B5C0BE3FD0EDBCFE9FFC4
:1051A000FE0EDBCFEAFF060EE926000EEA22EF6ACA
:1051B000FD0EDBCFE9FFFE0EDBCFEAFF030EE92693
:1051C000000EEA22EF06010E01D0000EE552E7CFF5
:1051D000D9FF1200D9CFE6FFE1CFD9FFFD0EDBCF1B
:1051E000E9FFFE0EDBCFEAFF030EE926000EEA22FE
:1051F000EF50E552E7CFD9FF1200D9CFE6FFE1CF5C
:10520000D9FFFD0EDBCFE9FFFE0EDBCFEAFF050E77
:10521000E926000EEA22EF6AFD0EDBCFE9FFFE0E63
:10522000DBCFEAFF060EE926000EEA22EF6AFD0E4A
:10523000DBCFE9FFFE0EDBCFEAFF030EE926000E0F
:0C524000EA22EF6AE552E7CFD9FF120026
:04524C00D9CFE6FFD1
:10525000E1CFD9FFFC0EDB40E840E8401F0B1F0BFD
:10526000E66E030EE76EFD0EDBCFE9FFFE0EDBCF31
:10527000EAFFE750E926000EEA22E552E750EF6E1A
:10528000FC0EDB50200DF350E00BE66E020EE76ED5
:10529000FD0EDBCFE9FFFE0EDBCFEAFFE750E9268C
:1052A000000EEA22E552E750EF6EE552E7CFD9FF54
:1052B0001200D9CFE6FFE1CFD9FFFE0EDBCFE6FF2C
:1052C000E90EE66E000EE66EC1DFE552E552E552EC
:1052D000FD0EDBCFE6FFED0EE66E000EE66EB6DFEE
:1052E000E552E552E552E668E50EE66E000EE66E22
:1052F000ADDFE552E552E552C6EC18F0010EE66E60
:10530000E5C0E6FFE6C0E6FFE7C0E6FFE8C0E6FF6F
:10531000180EE66E0F0EE66EA1EC1BF00B6E070E7C
:10532000E15E0B500D01D481010EE66EE9C0E6FF8F
:10533000EAC0E6FFEBC0E6FFECC0E6FF000EE66E5B
:105340000F0EE66EA1EC1BF00B6E070EE15E0B502C
:105350000D01D483010EE66EEDC0E6FFEEC0E6FF60
:10536000EFC0E6FFF0C0E6FF040EE66E0F0EE66E3D
:10537000A1EC1BF00B6E070EE15E0B500D01D48506
:10538000010EE66EE9C0E6FFEAC0E6FFEBC0E6FF0D
:10539000ECC0E6FF080EE66E0F0EE66EA1EC1BF009
:1053A0000B6E070EE15E0B500D01D487010EE66E09
:1053B000EDC0E6FFEEC0E6FFEFC0E6FFF0C0E6FF9F
:1053C0000C0EE66E0F0EE66EA1EC1BF00B6E070ED8
:1053D000E15E0B500D01D489010EE66EE9C0E6FFD7
:1053E000EAC0E6FFEBC0E6FFECC0E6FF100EE66E9B
:1053F0000F0EE66EA1EC1BF00B6E070EE15E0B507C
:105400000D01D48B010EE66EEDC0E6FFEEC0E6FFA7
:10541000EFC0E6FFF0C0E6FF140EE66E0F0EE66E7C
:10542000A1EC1BF00B6E070EE15E0B500D01D48D4D
:10543000010EE66EE9C0E6FFEAC0E6FFEBC0E6FF5C
:10544000ECC0E6FF600EE66E0D0EE66EA1EC1BF002
:105450000B6E070EE15E0B500D01D48F010EE66E50
:10546000EDC0E6FFEEC0E6FFEFC0E6FFF0C0E6FFEE
:10547000640EE66E0D0EE66EA1EC1BF00B6E070ED1
:10548000E15E0B500D01D581010EE66EE9C0E6FF2D
:10549000EAC0E6FFEBC0E6FFECC0E6FF680EE66E92
:1054A0000D0EE66EA1EC1BF00B6E070EE15E0B50CD
:1054B0000D01D583010EE66EEDC0E6FFEEC0E6FFFE
:1054C000EFC0E6FFF0C0E6FF700EE66E0D0EE66E72
:1054D000A1EC1BF00B6E070EE15E0B500D01D585A4
:1054E000010EE66EE9C0E6FFEAC0E6FFEBC0E6FFAC
:1054F000ECC0E6FF740EE66E0D0EE66EA1EC1BF03E
:105500000B6E070EE15E0B500D01D587010EE66EA6
:10551000EDC0E6FFEEC0E6FFEFC0E6FFF0C0E6FF3D
:10552000780EE66E0D0EE66EA1EC1BF00B6E070E0C
:10553000E15E0B500D01D589010EE66EE9C0E6FF74
:10554000EAC0E6FFEBC0E6FFECC0E6FF800EE66EC9
:105550000D0EE66EA1EC1BF00B6E070EE15E0B501C
:105560000D01D58B010EE66EEDC0E6FFEEC0E6FF45
:10557000EFC0E6FFF0C0E6FF840EE66E0D0EE66EAD
:10558000A1EC1BF00B6E070EE15E0B500D01D58DEB
:10559000010EE66EE9C0E6FFEAC0E6FFEBC0E6FFFB
:1055A000ECC0E6FF880EE66E0D0EE66EA1EC1BF079
:1055B0000B6E070EE15E0B500D01D58F010EE66EEE
:1055C000EDC0E6FFEEC0E6FFEFC0E6FFF0C0E6FF8D
:1055D000900EE66E0D0EE66EA1EC1BF00B6E070E44
:1055E000E15E0B500D01E06B110EE16F220EE26FD8
:1055F000330EE36F440EE46F550EE56F660EE66FF3
:10560000770EE76FF06BF16BF26BF26BE552E7CF61
:10561000D9FF1200A59CA49CA38C520EE66E560ED8
:10562000E66E20EC30F0E552E552200EE66E8DEC91
:105630001BF0E5521200D9CFE6FFE1CFD9FFFD0EF6
:10564000DBCFF1F0FE0EDBCFF2F0E552E7CFD9FF72
:105650001200A4AC0DD0A39CA49C0001F151F21146
:1056600007E005D0F2C0FAFF0001F151F96EFADF50
:02567000120026
:0E567200D9CFE6FFE1CFD9FF070EE126020EE9
:10568000DF6E030EDB6A040EDB6A060EDB6A010EB8
:10569000DB6A020EDB6A010EDBCF0BF0020EDBCF02
:1056A0000CF0EA6ADF34FE0BEA36E96EC60EE92634
:1056B000010EEA22EECF0DF0EFCF0EF00D500B5C95
:1056C0000E500C5862E2010EDBCF0BF0020EDBCF66
:1056D0000CF0030E0C02F3CF0CF0030E0B02F3CF11
:1056E0000BF0F4500C268C0E0B26000E0C22DF5013
:1056F0000F010B24F66E000E0C20F76E0800F5CF9C
:10570000DDF1DDC1E6FF010EDBCFE6FF020EDBCFF0
:10571000E6FFE66A5BEC20F0E552E552E552E55221
:10572000010EDBCFE6FF020EDBCFE6FFE66A3BECC5
:1057300020F0E552E552E5520101DE6FD950010F2C
:10574000E96EDACFEAFF000ED880EE54010EED5478
:1057500016E20101DE510101DD5D0FE0010EDB0605
:10576000020E01E2DB06060EDB2A060EDB506408A1
:1057700003E1060EDB6AFF0002D0060EDB6A010EB3
:10578000DB2A020E01E3DB2A86D7000E00D00B6E67
:10579000070EE15C02E2E16AE552E16E0B50E55270
:1057A000E7CFD9FF1200D9CFE6FFE1CFD9FF020E34
:1057B000E126DE6ADD6ADECF0BF0DDCF0CF0FC0EF9
:1057C000DBCF0DF0FD0EDBCF0EF00D500B5C0E505D
:1057D0000C5842E2DECF0BF0DDCF0CF0030E0C02D2
:1057E000F3CF0CF00B02F3CF0BF0F4500C26FA0EB3
:1057F000DB50F324E96EFB0EDB500C20EA6E020E48
:10580000E926000EEA22EF50E66EDECF0DF0DDCF86
:105810000EF0030E0E02F3CF0EF00D02F3CF0DF0DB
:10582000F4500E26FA0EDB50F324E96EFB0EDB502B
:105830000E20EA6EEECFE6FFEFCFE6FFFE0EDBCFE7
:10584000E6FF9AEC20F0E552E552E552E552DF2AF8
:10585000010EB1E3DB2AAFD7000E0B6E020EE15C46
:1058600002E2E16AE552E16E0B50E552E7CFD9FF63
:105870001200D9CFE6FFE1CFD9FF010EE66E020E8E
:10588000E66EE66AFE0EDBCFE6FF5BEC20F0E5524B
:10589000E552E552E552E552E7CFD9FF1200E66A3C
:1058A000090EE66EE66AE66A5BEC20F0E552E55228
:1058B000E552E552E66A0A0EE66EE66AE66A5BECD7
:1058C00020F0E552E552E552E5521200E66A090E73
:1058D000E66EE66AE66A5BEC20F0E552E552E552D8
:1058E000E552100EE66E0A0EE66EE66AE66A5BECBC
:1058F00020F0E552E552E552E5521200E66A090E43
:10590000E66EE66AE66A5BEC20F0E552E552E552A7
:10591000E552200EE66E0A0EE66EE66AE66A5BEC7B
:1059200020F0E552E552E552E5521200F30EE66E24
:10593000090EE66EE66AE66A5BEC20F0E552E55297
:10594000E552E5523F0EE66E0A0EE66EE66AE66A3C
:0E5950005BEC20F0E552E552E552E552120004
:02595E009D9614
:105960009F96520EE66E5B0EE66E04EC30F0E5524A
:10597000E5529496949A5AEC30F0800EE66EE66A00
:10598000020EE66E47EC32F0E552E552E5520101B7
:10599000010EDA6F1200000EE66EE66AE66EE66A47
:1059A000E66AE66A5BD80B6E060EE15E0B500101FB
:1059B000DA6B1200D9CFE6FFE1CFD9FF0101020E69
:1059C000DA6FFC0EDBCFF3F0FD0EDBCFF4F0010E4F
:1059D0000001F56FF66BFA0EDBCFF7F0FB0EDBCFB5
:1059E000F8F09E969D86C6BEC69EFC0EDBCFE9FFF4
:1059F000FD0EDBCFEAFFEF50C96E0101DA05FDE1D4
:105A0000E552E7CFD9FF1200D9CFE6FFE1CFD9FFAA
:105A10000101040EDA6FFA0EDBCFFDF0FB0EDBCFD7
:105A2000FEF0FC0EDBCFF9F0FD0EDBCFFAF000014B
:105A3000FB6BFC6B0101C20EDB6F5B0EDC6F9E9695
:105A40009D86FE0EDBCFE6FF7DD8E5520101DA052B
:105A5000FDE1000EE552E7CFD9FF1200D9CFE6FFF6
:105A6000E1CFD9FF9D96FD0EDB5003E10101010E50
:105A7000DA6F000EE552E7CFD9FF1200D9CFE6FF6B
:105A8000E1CFD9FFE652010EE66EE66AD9CFE6FF16
:105A9000DACFE6FFFE0EDBCFE6FFB6DF0B6E050EBC
:105AA000E15E0B50DF50E552E552E7CFD9FF12001F
:105AB000D9CFE6FFE1CFD9FF010EE66EE66AD950F5
:105AC000FD0FE66EFF0EDA20E66EFE0EDBCFE6FF80
:105AD00071DF0B6E050EE15E0B50E552E7CFD9FF8B
:105AE0001200D9CFE6FFE1CFD9FFFD0EDBCF0EF0DC
:105AF0000EC00DF00E6AFC0EDBCF0FF00FC010F0E1
:105B00000F6A0D500F100B6E0E5010100C6EFC0E25
:105B10000BC0DBFFFD0E0CC0DBFF020EE66EE66A7B
:105B2000D950FC0FE66EFF0EDA20E66EFE0EDBCFDC
:105B3000E6FF40DF0B6E050EE15E0B50E552E7CF4E
:105B4000D9FF1200D9CFE6FFC96AE552E7CFD9FFE6
:105B500012009EA635D09E96020E0101DA5D1DE16F
:105B60000001F751F55DF851F65910E2F5C00BF060
:105B7000F6C00CF0F52B000EF623F3510B24E96E62
:105B8000F4510C20EA6EEF50C96E12009D96F36B33
:105B9000F46B0101010EDA6F1200C950E66E05D0F8
:105BA000DCC1FAFF0101DB51F96EFADFE5520108B1
:105BB00002E1AEEF30F0B2EC30F00101010EDA6F2D
:105BC0001200D9CFE6FFE1CFD9FF0001F951FB2543
:105BD000E96EFA51FC21EA6EFE0EDBCFEFFFFB2BE4
:105BE000000EFC23FD07FE5BFD51FE1102E1000EDD
:105BF00001D0010EE552E7CFD9FF1200D9CFE6FF61
:105C0000E1CFD9FFFC0EDBCFE6FFFD0EDBCFE6FFD9
:105C1000FE0EDBCFE6FFCAEC32F0E552E552E5526C
:085C2000E552E7CFD9FF1200A5
:085C2800D9CFE6FFE1CFD9FF5F
:105C30001B0EE126160EDB6A170EDB6AD950150F14
:105C4000E66E000EDA20E66ED950140FE66E000EF6
:105C5000DA20E66ED9500C0FE66E000EDA20E66E02
:105C6000D950080FE66E000EDA20E66EA1EC1AF0AD
:105C70000B6E080EE15E0B5000096BE0D950080F67
:105C80000B6EDACF0CF0180E0BC0DBFF190EDACF5B
:105C9000DBFF020EE76E180EDBCFE9FF190EDBCF3C
:105CA000EAFFE750E926000EEA22EF50E00BE83861
:105CB000E840E76E1A0EE7CFDBFF030EE76E180E23
:105CC000DBCFE9FF190EDBCFEAFFE750E926000E34
:105CD000EA22EF50080D1A0EDBCFE7FFF350E71270
:105CE0001A0EE7CFDBFFDB500101D85D04E01A0E8E
:105CF000DB50FF08A3E1020EE76E180EDBCFE9FFD1
:105D0000190EDBCFEAFFE750E926000EEA22EF503A
:105D10001F0BE76E1A0EE7CFDBFFDB500B0A8EE09E
:105D2000020A8CE00B0A10E0030A08E0010A01E015
:105D300085D7D8C1E6FF38EC31F004D0D8C1E6FFF2
:105D400073EC31F0E55202D07EEC31F097EC30F09C
